                                    12345671234567
11111HENRY          TANZY          W0010020001002001                   x
11111HENRY          TANZY          W0010020001002002                   x
11111HENRY          TANZY          W0010020001002003                   x
11111HENRY          TANZY          W0010020001002004                   x
11111HENRY          TANZY          W0010010001000005                   x
11111HENRY          TANZY          W0010010001001006                   x
11111HENRY          TANZY          W0010020001001007                   x
11111HENRY          TANZY          W0010020001001008                   x
11111HENRY          TANZY          W0010020001001009                   x
11111HENRY          TANZY          W0010020001001010                   x
11111HENRY          TANZY          W0010020001001011                   x
11111HENRY          TANZY          W0010020001001012                   x
22222Rick           Towson         W0100100002001001                   x
22222Rick           Towson         W0100100002001002                   x
22222Rick           Towson         W0100100002001003                   x
22222Rick           Towson         W0100100003001004                   x
22222Rick           Towson         W0100100003001005                   x
22222Rick           Towson         W0100100003001006                   x
22222Rick           Towson         W0100100003001007                   x
22222Rick           Towson         W0100100004001008                   x
22222Rick           Towson         W0100100004001009                   x
22222Rick           Towson         W0100100004001010                   x
22222Rick           Towson         W0100100004001011                   x
22222Rick           Towson         W0100100004001012                   x
33333Bob            Kepler         T0020000000000001                   x
33333Bob            Kepler         T0020000000000002                   x
33333Bob            Kepler         T0020000000000003                   x
33333Bob            Kepler         T0020000000000004                   x
33333Bob            Kepler         T0020000000000005                   x
33333Bob            Kepler         T0030000000000006                   x
33333Bob            Kepler         T0030000000000007                   x
33333Bob            Kepler         T0030000000000008                   x
33333Bob            Kepler         T0030000000000009                   x
33333Bob            Kepler         T0030000000000010                   x
33333Bob            Kepler         T0030000000000011                   x
33333Bob            Kepler         T0030000000000012                   x
44444Brian          Bennett        E0000301000030101                   x
44444Brian          Bennett        E0000301000030102                   x
44444Brian          Bennett        E0000301000030103                   x
44444Brian          Bennett        E0000201000020104                   x
44444Brian          Bennett        E0000201000020105                   x
44444Brian          Bennett        E0000202000020106                   x
44444Brian          Bennett        E0000102000010207                   x
44444Brian          Bennett        E0000102000010208                   x
44444Brian          Bennett        E0000102000010209                   x
44444Brian          Bennett        E0000055000005510                   x
44444Brian          Bennett        E0000020000002011                   x
44444Brian          Bennett        E0000000000000012                   x
55555Jun            Ren            W0010020001002001                   x
55555Jun            Ren            W0010020001002002                   x
55555Jun            Ren            W0010020001002003                   x
55555Jun            Ren            W0010020001002004                   x
55555Jun            Ren            W0010010001000005                   x
55555Jun            Ren            W0010010001001006                   x
55555Jun            Ren            W0010020001001007                   x
55555Jun            Ren            W0010020001001008                   x
55555Jun            Ren            W0010020001001009                   x
55555Jun            Ren            W0010020001001010                   x
55555Jun            Ren            W0010020001001011                   x
55555Jun            Ren            W0010020001001012                   x
66666Jeff           Friedman       T0020300000300001                   x
66666Jeff           Friedman       T0020400000000002                   x
66666Jeff           Friedman       T0020000000300003                   x
66666Jeff           Friedman       T0020500000000004                   x
66666Jeff           Friedman       T0020000000300005                   x
66666Jeff           Friedman       T0030600000000006                   x
66666Jeff           Friedman       T0033000000000007                   x
66666Jeff           Friedman       T0030000000000008                   x
66666Jeff           Friedman       T0030400000000009                   x
66666Jeff           Friedman       T0030050000000010                   x
66666Jeff           Friedman       T0030000000000011                   x
66666Jeff           Friedman       T0030000000000012                   x
77777Fred           Brisard        T0020300000300001                   x
77777Fred           Brisard        T0020400000000002                   x
77777Fred           Brisard        T0020000000300003                   x
77777Fred           Brisard        T0020500000000004                   x
77777Fred           Brisard        T0020000000300005                   x
77777Fred           Brisard        T0030600000000006                   x
77777Fred           Brisard        T0033000000000007                   x
77777Fred           Brisard        T0030000000000008                   x
77777Fred           Brisard        T0030400000000009                   x
77777Fred           Brisard        T0030050000000010                   x
77777Fred           Brisard        T0030000000000011                   x
77777Fred           Brisard        T0030000000000012                   x
88888KEVIN          COYNE          T0020300000300001                   x
88888KEVIN          COYNE          T0020400000000002                   x
88888KEVIN          COYNE          T0020000000300003                   x
88888KEVIN          COYNE          T0020500000000004                   x
88888KEVIN          COYNE          T0020000000300005                   x
88888KEVIN          COYNE          T0030600000000006                   x
88888KEVIN          COYNE          T0033000000000007                   x
88888KEVIN          COYNE          T0030000000000008                   x
88888KEVIN          COYNE          T0030400000000009                   x
88888KEVIN          COYNE          T0030050000000010                   x
88888KEVIN          COYNE          T0030000000000011                   x
88888KEVIN          COYNE          T0030000000000012                   x
99999Jon            Holliday       T0020300000300001                   x
99999Jon            Holliday       T0020400000000002                   x
99999Jon            Holliday       T0020000000300003                   x
99999Jon            Holliday       T0020500000000004                   x
99999Jon            Holliday       T0020000000300005                   x
99999Jon            Holliday       T0030600000000006                   x
99999Jon            Holliday       T0033000000000007                   x
99999Jon            Holliday       T0030000000000008                   x
99999Jon            Holliday       T0030400000000009                   x
99999Jon            Holliday       T0030050000000010                   x
99999Jon            Holliday       T0030000000000011                   x
99999Jon            Holliday       T0030000000000012                   x
12345Rich           Groot          T0020300000300001                   x
12345Rich           Groot          T0020400000000002                   x
12345Rich           Groot          T0020000000300003                   x
12345Rich           Groot          T0020500000000004                   x
12345Rich           Groot          T0020000000300005                   x
12345Rich           Groot          T0030600000000006                   x
12345Rich           Groot          T0033000000000007                   x
12345Rich           Groot          T0030000000000008                   x
12345Rich           Groot          T0030400000000009                   x
12345Rich           Groot          T0030050000000010                   x
12345Rich           Groot          T0030000000000011                   x
12345Rich           Groot          T0030000000000012                   x
54321Kevin          Haverlock      T0020300000300001                   x
54321Kevin          Haverlock      T0020400000000002                   x
54321Kevin          Haverlock      T0020000000300003                   x
54321Kevin          Haverlock      T0020500000000004                   x
54321Kevin          Haverlock      T0020000000300005                   x
54321Kevin          Haverlock      T0030600000000006                   x
54321Kevin          Haverlock      T0033000000000007                   x
54321Kevin          Haverlock      T0030000000000008                   x
54321Kevin          Haverlock      T0030400000000009                   x
54321Kevin          Haverlock      T0030050000000010                   x
54321Kevin          Haverlock      T0030000000000011                   x
54321Kevin          Haverlock      T0030000000000012                   x
33331Bob            Kennedy        T0020300000300001                   x
33331Bob            Kennedy        T0020400000000002                   x
33331Bob            Kennedy        T0020000000300003                   x
33331Bob            Kennedy        T0020500000000004                   x
33331Bob            Kennedy        T0020000000300005                   x
33331Bob            Kennedy        T0030600000000006                   x
33331Bob            Kennedy        T0033000000000007                   x
33331Bob            Kennedy        T0030000000000008                   x
33331Bob            Kennedy        T0030400000000009                   x
33331Bob            Kennedy        T0030050000000010                   x
33331Bob            Kennedy        T0030000000000011                   x
33331Bob            Kennedy        T0030000000000012                   x
xxxxxFFFFFFFFFFFFFFFLLLLLLLLLLLLLLLM
ooooo12345678901234512345678901234511234567123456712





